:020000040800F2
:100000001036002095710108493000089F710108E1
:100010004B3000084F30000853300008000000004B
:100020000000000000000000000000005730000841
:100030005930000800000000AB710108C5A000089D
:10004000AF710108AF710108AF710108AF7101080C
:10005000AF710108AF710108AF710108AF710108FC
:10006000AF710108AF710108AF710108AF710108EC
:10007000AF710108AF710108AF710108AF710108DC
:10008000AF710108AF710108AF710108AF710108CC
:10009000AF710108AF710108AF7101085B30000852
:1000A000AF710108AF710108AF710108AF710108AC
:1000B000AF7101086D30000875300008AF7101089C
:1000C000AF710108AF710108AF710108AF7101088C
:1000D000AF7101087D30000885300008AF7101085C
:1000E000AF710108AF710108AF710108AF7101086C
:1000F000AF710108AF710108AF710108AF7101085C
:10010000AF710108AF710108AF710108AF7101084B
:100110008D30000895300008AF710108AF710108FB
:10012000AF710108AF710108AF710108AF7101082B
:10013000AF710108AF710108AF710108AF7101081B
:10014000AF710108AF710108AF7101081DCD000842
:10015000AF710108AF710108AF7101089D3000084F
:10016000AF710108AF710108AF710108AF710108EB
:10017000AF710108AF710108AF710108AF710108DB
:10018000AF710108AF710108DFF80CD01DF0B8F8AD
:1001900000480047C50300081036002010B504468B
:1001A0004848C079012805D009F076FF41F288312E
:1001B000884201D2002010BD042C06D0052C0FD09F
:1001C000062C0ED0072C1ED100E000BF3E4830F9AF
:1001D000140010F5967F01DA0120ECE70320EAE72E
:1001E00000BF394830F9140010F5967F01DA01207C
:1001F000E1E7354830F91400B0F5967F01DD0320C2
:10020000D9E70220D7E74FF0FF30D4E710B5072039
:10021000FFF7C4FF0446032C00D0FCB900202B4993
:1002200008702B48406905280BDC2A4840690028E3
:1002300002DD2848406902E026484069404205281E
:1002400002DD06F08BFC29E01E48C07A052825D087
:1002500000201C4908730520C8721FE01948407B24
:1002600018B101201949087018E00420FFF796FF23
:1002700001280DD10520FFF791FF012808D10620A4
:10028000FFF78CFF012803D100200E49C87202E05D
:1002900005200C49C87200200C49087010BD10B52B
:1002A0002DED028BB0EE408A0446012C06D118EEEB
:1002B000100A0949C1F8E80006F041FCBDEC028BC8
:1002C00010BD000034100020260B0020000000208C
:1002D000C4140020A01400200715002070477047A8
:1002E0007047704700B501460648007880F001006D
:1002F000044A10701046007810B16420FFF7F1FF37
:1003000000BD70470100002010B50446294801785F
:100310000078401C274A1070274844541046007843
:10032000012807D124480078A52803D000201146D1
:10033000087010BD1F480078022807D11E48407879
:100340005A2803D000201B490870F2E719480078AA
:10035000092800DAEDE718488078FF2825D109221E
:10036000154916481CF030FD144800791349C97826
:1003700040EA0120B0F5C87F17DA104880790F49AC
:10038000497940EA0120B0F5C87F0EDA0B480079C0
:100390000A49C97840EA01200849886108468079FD
:1003A000497940EA01200549486100200149087067
:1003B00000BFBEE7020000200C080020E00700207C
:1003C00000BFFEE700F010F90349087000F0B1F833
:1003D00001E000F0D4F8FCE73410002010B57B48B1
:1003E00040687A49086009F01CFE784948607849FD
:1003F000C8607648406875490968401A7349886042
:1004000007F0A2FF01200AF073FC012007F0C2FFF1
:1004100008F016F80DF080FA6E49012006F002FC93
:10042000012006F04AFE01F0C2FD09F0FAFD68491C
:10043000086108460069C968401A6549486110BDED
:1004400010B59FED650A06F0EAF9022007F078FD85
:1004500010BD10B56148007810B10520FFF73EFFD0
:1004600010BD10B509F0DDFD594908600A2002F001
:10047000B9FB0A2006F076FE04F08FFC55489FED8C
:10048000580A05F00DFF0A2007F0EBFF0A200DF0D7
:1004900064FA9FED530A05F06BFD9FED510A05F0DC
:1004A00042FC0A2002F0CEFC0A2008F06DFA4B480C
:1004B000007810B10A20FFF712FF09F0B2FD44499D
:1004C0004860084640680968401A4149886010BD84
:1004D00010B5142007F09CFF142002F060FF3D4986
:1004E000142006F013FF3D48007810B11420FFF7E8
:1004F000F7FE10BD10B5FFF789FE0BF0CFF93220E3
:1005000007F040FE32200DF03EFB3448007810B179
:100510003220FFF7E7FE10BD10B54FF4FA7008F077
:1005200033FE2E48007818B14FF4FA70FFF7E9FE59
:1005300010BD002000BF1FE000EB4001294A02EB84
:10054000810189884FF47A7292FBF1F100EB40024D
:10055000244B03EB8202D18000EB40011A4602EBF0
:100560008101C988012905DA012100EB400203EB72
:100570008202D180411CC8B20728DDD3704770B514
:10058000002400BF1EE009F087FD054604EB44008F
:10059000144901EB80008068281A04EB4401114AD9
:1005A00002EB8101C98888420AD304EB440011465A
:1005B00001EB8000856004EB440152F82100804784
:1005C000601CC4B2072CDED370BD000018080020E8
:1005D00024080020260B00206F12033B000000209F
:1005E0000AD7233C0400002010B54FF480600DF0C2
:1005F00095FD09F0E4FC642009F03CFD08F056F894
:100600000BF0B0F903F0C1FA02F002F809F004FBB4
:10061000642009F02FFD08F021FE0AF01FF809F010
:100620009BFF0AF0ADFD0AF0EAF81949487008701E
:10063000012088700AF0E2FF1549C87002F032FD0F
:10064000642009F017FD134809F050FD0A2009F055
:1006500011FD104809F0CDFE0A2009F00BFD0BF04A
:100660006CFB0BF009F908F076FB642009F002FD41
:1006700006F01AFA322009F0FDFC0DF02DFA4FF4C5
:10068000E13009F001FE04A001F012FF012010BDCD
:10069000F700002020A1070053595320696E6974A8
:1006A000204F4B210000000070B505460C46214646
:1006B000FE4802F0FEFC2146FC4809F0C6FD70BD74
:1006C000FB4890ED010AF8EEC00A9FEDFA1A80EEA1
:1006D000810A10EE100AF849C864F54890ED020A44
:1006E000F8EEC00A9FEDF31A80EE810A10EE100AB0
:1006F0000865EF4890ED030AF8EEC00A9FEDED1A89
:1007000080EE810A10EE100A4865E94890ED040A6F
:10071000F8EEC00A9FEDE71A80EE810A10EE100A8B
:100720008865E34890ED050AF8EEC00A9FEDE11AEE
:1007300080EE810A10EE101ADF48C165DC4890EDAA
:10074000060AF8EEC00A9FEDDB1A80EE810A10EE71
:10075000101AD9480166D64890ED070AF8EEC00A8B
:100760009FEDD41A80EE810A10EE100AD249486635
:10077000CF4890ED080AF8EEC00A9FEDCE1A80EE41
:10078000810A10EE101ACC488166C94890ED090A1A
:10079000F8EEC00A9FEDC71A80EE810A10EE101A1B
:1007A000C548C166C24890ED0A0AF8EEC00A9FED3E
:1007B000C11A80EE810A10EE100ABF490867BC48D2
:1007C00090ED0B0AF8EEC00A9FEDBA1A80EE810A8E
:1007D00010EE100A4867B64890ED0C0AF8EEC00A11
:1007E0009FEDB41A80EE810A10EE100A8867B048B7
:1007F00090ED0D0AF8EEC00A9FEDAE1A80EE810A68
:1008000010EE100AC867AA4890ED0E0AF8EEC00A6A
:100810009FEDA81A80EE810A10EE101AA648C0F8C3
:100820008010A34890ED0F0AF8EEC00A9FEDA11AC0
:1008300080EE810A10EE101A9F48C0F884109C4880
:1008400090ED100AF8EEC00A9FED9A1A80EE810A28
:1008500010EE100A9849C1F88800954890ED110AE9
:10086000F8EEC00A9FED931A80EE810A10EE101A7E
:100870009148C0F88C108E4890ED120AF8EEC00A2C
:100880009FED8C1A80EE810A10EE101A8A48C0F88B
:100890009010874890ED130AF8EEC00A9FED851A74
:1008A00080EE810A10EE100A8349C1F89400804856
:1008B00090ED140AF8EEC00A9FED7E1A80EE810AD0
:1008C00010EE100AC1F89800794890ED150AF8EE7C
:1008D000C00A9FED781A80EE810A10EE100AC1F866
:1008E0009C00734890ED160AF8EEC00A9FED711A4D
:1008F00080EE810A10EE100AC1F8A0006C4890ED5D
:10090000170AF8EEC00A9FED6B1A80EE810A10EE0E
:10091000100AC1F8A400664890ED180AF8EEC00A63
:100920009FED641A80EE810A10EE100AC1F8A8004B
:100930005F4890ED190AF8EEC00A9FED5E1A80EE4E
:10094000810A10EE100AC1F8AC00594890ED1A0A5D
:10095000F8EEC00A9FED571A80EE810A10EE100AD9
:10096000C1F8B000524890ED1B0AF8EEC00A9FEDA6
:10097000511A80EE810A10EE100AC1F8B4004C48FA
:1009800090ED1C0AF8EEC00A9FED4A1A80EE810A2B
:1009900010EE100AC1F8B800454890ED1D0AF8EEB7
:1009A000C00A9FED441A80EE810A10EE100AC1F8C9
:1009B000BC003F4890ED1E0AF8EEC00A9FED3D1ABC
:1009C00080EE810A10EE100AC1F8C000384890EDA0
:1009D0001F0AF8EEC00A9FED371A80EE810A10EE6A
:1009E000100AC1F8C400324890ED200AF8EEC00A9F
:1009F0009FED301A80EE810A10EE100AC1F8C8008F
:100A00002B4890ED210AF8EEC00A9FED2A1A80EEDD
:100A1000810A10EE100AC1F8CC00254890ED220A98
:100A2000F8EEC00A9FED231A80EE810A10EE100A3C
:100A3000C1F8D0001E4890ED230AF8EEC00A9FEDE1
:100A40001D1A80EE810A10EE100AC1F8D400184871
:100A500090ED240AF8EEC00A9FED161A80EE810A86
:100A600010EE100AC1F8D8001148D0F8F40010B9FF
:100A7000002088700AE00E48D0F8F400012802D166
:100A80000D49887002E002200B498870084890EDFB
:100A90003F0AF8EEC00AB2EE041A80EE810A10EEA8
:100AA000100A0549C1F8DC00014807E0E009002010
:100AB0003C08002000007A440715002090ED400A11
:100AC000F8EEC00AB2EE041A80EE810A10EE100AA7
:100AD000C1F8E000FE4890ED410AF8EEC00AB2EE1F
:100AE000041A80EE810A10EE100AC1F8E400F848FA
:100AF00090ED450AB8EEC00A10EE100AC1F8E80001
:100B0000F34890ED460AB8EEC00A10EE100AC1F89C
:100B1000EC00EF4890ED470AB8EEC00A10EE100A5C
:100B2000C1F8F000EA4890ED3E0AB8EEC00A10EEB7
:100B3000100AC1F8F400E648D0F8200110B90020EE
:100B4000C87002E00120E349C870704770B50446E0
:100B50000D46642C00DD70BDDD4840F82450FFF7E1
:100B6000AFFDDD48448203F005F800BFF3E72DE94F
:100B7000FF4105460E460024AA222146641CD748A0
:100B8000425405222146641C42542146641C4554AB
:100B9000E0222146641C425400222146641C425437
:100BA0002146641C46549DF809202146641C425489
:100BB0009DF808202046611CCCB2C8490A549DF813
:100BC0000D202046611CCCB2C4490A549DF80C206B
:100BD0002046611CCCB2C1490A549DF82920204608
:100BE000611CCCB2BD490A549DF828202146601CE6
:100BF000C4B2BA4842549DF82D202046611CCCB2A4
:100C0000B6490A549DF82C202046611CCCB2B34949
:100C10000A549DF831202046611CCCB2AF490A54D9
:100C20009DF830202046611CCCB2AC490A54601FAC
:100C300008710027002005E0A849095C3944CFB2BB
:100C4000411CC8B2A042F7DB2046611CCCB2A349CC
:100C50000F542146A148FFF727FDBDE8FF812DE98C
:100C6000FE4304460D460026002004E0215C31448A
:100C7000CEB2411CC8B2691E8142F7DC601910F87F
:100C8000010CB04201D0BDE8FE832078AA2802D131
:100C90006078AF2800D0F6E7A07805287BD1E0780F
:100CA000E0287AD16079102853D004DC012807D0DD
:100CB000022853D124E011284FD0E1284ED141E041
:100CC000A07920B9E079012801D185490870A0797F
:100CD00028B9E079022802D1012081494870A07921
:100CE00028B9E079042802D101207E490870A07952
:100CF00028B9E079B02802D101207749C8702EE0E8
:100D0000A07940B9E079AA2805D108F081F805F06A
:100D1000CBFE02F02FFFA07930B9E079AB2803D1E8
:100D200008F0A5F902F026FFA07950B9E079AF28C4
:100D300007D108F06DF805F0B7FE08F098F902F059
:100D400019FF0CE0E079A17940EA0120624948826C
:100D500005E0601D02F0F6FA01E000E000BF00BF10
:100D6000E07BA17B40EA0120617B227B41EA0221FA
:100D7000E27AA37A42EA0322CDE900210290607A66
:100D8000277A40EA0723E079A77940EA07226179C8
:100D9000AF20FFF7ECFE17E0FFE7E078E12813D182
:100DA000A079617940EA0127E0790006217A00EB19
:100DB0000140617A00EB0120A17A00EB0108414675
:100DC0003846FFF7C3FE00BF00BF5CE710B54648DA
:100DD000007848B145480078801DC1B24448FFF70B
:100DE0003EFF00204049087010BD1FB5AA208DF8B5
:100DF00000008DF8010000208DF8020009208DF818
:100E0000030005208DF8040000208DF80500012066
:100E10008DF8060000208DF807000D208DF80800E1
:100E200001208DF8090090208DF80A0000208DF82F
:100E30000B008DF80C00002400BF05E01DF8001029
:100E40002144CCB2411CC8B20D28F7DB8DF80D400F
:100E50000E216846FFF728FC1FBD2DE9F0432DED5C
:100E6000028B83B005460E4617469846B0EE408A80
:100E70000024AA222146641C184842540522214617
:100E8000641C4254AF222146641C42540422214671
:100E9000641C425400222146641C42542146641CB6
:100EA00045542146641C465401979DF8072020466E
:100EB000611CCCB209490A549DF806202046611CE9
:100EC000CCB206490A549DF805202046611C11E069
:100ED0003C08002007150020CC090020E009002074
:100EE00074290020E00200205F0000205E00002046
:100EF000120A0020CCB2FB490A549DF80420204677
:100F0000611CCCB2F7490A54CDF804809DF8072043
:100F10002046611CCCB2F3490A549DF806202046B5
:100F2000611CCCB2EF490A549DF805202146601C93
:100F3000C4B2EC4842549DF804202046611CCCB257
:100F4000E8490A549FEDE80A28EE000ABDEEC00AFF
:100F500010EE100A00B202909DF809202046611C94
:100F6000CCB2E0490A549DF808202046611CCCB25E
:100F7000DC490A54601F08714FF00009002006E0A8
:100F8000D849095C494401F0FF09411CC8B2A0429C
:100F9000F6DB2046611CCCB2D24901F80090214614
:100FA000D048FFF781FB03B0BDEC028BBDE8F083B6
:100FB000F8B505460E460024AA222146641CC948FD
:100FC000425405222146641C4254AF222146641C2F
:100FD000425405222146641C425400222146641CCE
:100FE000425400959DF801202146641C42549DF80E
:100FF00000202146641C425400969DF801202046A2
:10100000611CCCB2B7490A549DF800202046611CEF
:10101000CCB2B4490A54601F08710027002005E0D3
:10102000B049095C3944CFB2411CC8B2A042F7DBD9
:101030002046611CCCB2AB490F542146A948FFF7AA
:1010400033FBF8BD7FB50024AA222146641CA548C5
:10105000425405222146641C4254AF222146641C9E
:10106000425406222146641C425400222146641C3C
:1010700042549DF801202146641C42549DF80020F2
:101080002146641C42549DF805202046611CCCB2C8
:1010900094490A549DF804202146601CC4B291482A
:1010A00042549DF809202046611CCCB28D490A5457
:1010B0009DF808202046611CCCB28A490A549DF84C
:1010C0000D202046611CCCB286490A549DF80C20A4
:1010D0002046611CCCB283490A549DF82120204649
:1010E000611CCCB27F490A549DF820202046611C27
:1010F000CCB27C490A549DF825202046611CCCB214
:1011000078490A549DF824202146601CC4B27548D1
:1011100042549DF829202046611CCCB271490A54E2
:101120009DF828202046611CCCB26E490A549DF8D7
:101130002D202046611CCCB26A490A549DF82C200F
:101140002046611CCCB267490A54601F0871002513
:10115000002005E06349095C2944CDB2411CC8B2B6
:10116000A042F7DB2046611CCCB25E490D542146FB
:101170005C48FFF799FA7FBD7FB50024AA2221467B
:10118000641C5848425405222146641C4254AF2234
:101190002146641C425403222146641C425400220E
:1011A0002146641C42549DF801202146641C42548F
:1011B0009DF800202146641C42549DF805202046DD
:1011C000611CCCB247490A549DF804202046611C9A
:1011D000CCB244490A549DF809202046611CCCB287
:1011E00040490A549DF808202046611CCCB23D4974
:1011F0000A549DF80D202046611CCCB239490A548E
:101200009DF80C202046611CCCB236490A549DF84A
:1012100021202046611CCCB232490A549DF820207E
:101220002046611CCCB22F490A549DF82520204647
:10123000611CCCB22B490A549DF824202046611C25
:10124000CCB228490A549DF829202046611CCCB212
:1012500024490A549DF828202046611CCCB221491B
:101260000A549DF82D202046611CCCB21D490A5419
:101270009DF82C202046611CCCB21A490A549DF8D6
:1012800031202146601CC4B2164842549DF83020DB
:101290002046611CCCB213490A549DF835202046E3
:1012A000611CCCB20F490A549DF834202046611CC1
:1012B000CCB20C490A54601F08710025002005E0DB
:1012C0000849095C2944CDB2411CC8B2A042F7DBF1
:1012D0002046611CCCB203490D5421460148FFF75A
:1012E000E3F97FBDE00900200000C84237B50024C3
:1012F000AA222146641CFE48425405222146641C51
:101300004254AF222146641C425407222146641CE9
:10131000425400222146641C42549DF80320214679
:10132000641C42549DF802202146641C42549DF8DE
:1013300001202046611CCCB2ED490A549DF80020E2
:101340002046611CCCB2EA490A549DF80720204689
:10135000611CCCB2E6490A549DF806202046611C67
:10136000CCB2E3490A549DF805202046611CCCB25A
:10137000DF490A549DF804202046611CCCB2DC49A8
:101380000A549DF809202046611CCCB2D8490A5461
:101390009DF808202046611CCCB2D5490A54601F34
:1013A00008710025002005E0D149095C2944CDB22F
:1013B000411CC8B2A042F7DB2046611CCCB2CC492C
:1013C0000D542146CA48FFF76FF93EBD2DE9F84F8D
:1013D00005460E4617469846DDE90AAB0024AA22C8
:1013E0002146641CC248425405222146641C4254D2
:1013F000AF222146641C425402222146641C4254FE
:1014000000222146641C425400959DF8012021468B
:10141000641C42549DF800202146641C42540096EE
:101420009DF801202046611CCCB2B1490A549DF8B8
:1014300000202046611CCCB2AD490A5400979DF8AB
:1014400001202046611CCCB2A9490A549DF8002015
:101450002046611CCCB2A6490A54CDF800809DF804
:1014600001202046611CCCB2A1490A549DF80020FD
:101470002046611CCCB29E490A54CDF800A09DF8CC
:1014800001202046611CCCB299490A549DF80020E5
:101490002046611CCCB296490A54CDF800B09DF8A4
:1014A00001202046611CCCB291490A549DF80020CD
:1014B0002146601CC4B28E4842540C9800909DF89E
:1014C00001202046611CCCB289490A549DF80020B5
:1014D0002046611CCCB286490A540D9800909DF8B4
:1014E00001202046611CCCB281490A549DF800209D
:1014F0002046611CCCB27E490A540E9800909DF89B
:1015000001202046611CCCB279490A549DF8002084
:101510002046611CCCB276490A54601F08714FF016
:101520000009002006E07249095C494401F0FF0906
:10153000411CC8B2A042F6DB2046611CCCB26C490B
:1015400001F8009021466A48FFF7AEF8BDE8F88F31
:1015500038B50024AA222146641C6548425405225D
:101560002146641C4254AF222146641C4254F1229D
:101570002146641C425400222146641C42545D48AA
:10158000B0F9000000909DF801202146641C5848E5
:1015900042549DF800202146641C42545648B0F93C
:1015A000000000909DF801202046611CCCB25049FB
:1015B0000A549DF800202046611CCCB24C490A54C4
:1015C0004E48B0F9000000909DF801202046611CB3
:1015D000CCB247490A549DF800202046611CCCB289
:1015E00043490A544648B0F9000000909DF8012094
:1015F0002046611CCCB23E490A549DF8002020468A
:10160000611CCCB23A490A543E4890ED160A5FED8F
:10161000CA0A20EE200ABDEEC00A10EE100A00B27F
:1016200000909DF801202046611CCCB230490A543C
:101630009DF800202046611CCCB22D490A54324846
:1016400090ED000A5FEDD80A20EE200ABDEEC00A38
:1016500010EE100A00B200909DF801202146601C97
:10166000C4B2234842549DF800202046611CCCB2ED
:101670001F490A54601F08710025002005E01C491D
:10168000095C2944CDB2411CC8B2A042F7DB204618
:10169000611CCCB216490D5421461548FFF704F8D9
:1016A00038BD30B52DED048B81B0B0EE408AF0EE40
:1016B000608AB0EE419A0024AA222146641C0C489C
:1016C000425405222146641C4254AF222146641C28
:1016D00042540B222146641C425400222146641CC1
:1016E00042549FED0A0A28EE000ABDEEC00A0FE040
:1016F000E0090020940000209600002098000020BF
:101700009A000020742900208C040020CDCCCC3D10
:1017100010EE100A00B200909DF801202146641CD2
:10172000FE4842549DF800202146641C42541FED9F
:10173000090A28EE800ABDEEC00A10EE100A00B2B7
:1017400000909DF801202046611CCCB2F3490A5458
:101750009DF800202046611CCCB2F0490A541FEDD0
:10176000150A29EE000ABDEEC00A10EE100A00B2FA
:1017700000909DF801202046611CCCB2E7490A5434
:101780009DF800202046611CCCB2E4490A54601F39
:1017900008710025002005E0E049095C2944CDB22C
:1017A000411CC8B2A042F7DB2046611CCCB2DB4929
:1017B0000D542146D948FEF777FF01B0BDEC048BEC
:1017C00030BD2DE9F0412DED048B82B0B0EE408AA2
:1017D000F0EE608AB0EE419A05460E4617460024A8
:1017E0000095AA222146641CCC4842540522214679
:1017F000641C4254AF222146641C425401222146FB
:10180000641C425400222146641C42549FEDC40AC9
:1018100028EE000ABDEEC00A10EE100A00B20190D8
:101820009DF805202146641CBC4842549DF80420C4
:101830002146641C42549FEDBA0A28EE800ABDEE90
:10184000C00A10EE100A00B201909DF80520214652
:10185000601CC4B2B14842549DF804202046611C6B
:10186000CCB2AE490A549FEDAE0A29EE000ABDEE95
:10187000C00A10EE100A00B201909DF80520204623
:10188000611CCCB2A5490A549DF804202046611C75
:10189000CCB2A2490A549DF803202046611CCCB268
:1018A0009E490A549DF802202146601CC4B29B4800
:1018B00042549DF801202146601CC4B2974842540E
:1018C0009DF800202046611CCCB294490A54204661
:1018D000611CCCB291490E542046611CCCB28F4998
:1018E0000F54601F08714FF00008002006E08B497C
:1018F000095C414401F0FF08411CC8B2A042F6DB7C
:101900002046611CCCB2854901F8008021468348FD
:10191000FEF7CAFE02B0BDEC048BBDE8F081814841
:10192000C06C00EE100ADFED800A20EE200ABDEE4A
:10193000C00A7E4880ED010A7A48006D00EE100A68
:10194000DFED790A20EE200ABDEEC00A774880ED6F
:10195000020A7448406D00EE100ADFED730A20EEB3
:10196000200ABDEEC00A714880ED030A6D48806D03
:1019700000EE100ADFED6C0A20EE200ABDEEC00A70
:101980006A4880ED040A6748C06D00EE100ADFED7A
:10199000660A20EE200ABDEEC00A644880ED050A02
:1019A0006048006E00EE100ADFED5F0A20EE200AAC
:1019B000BDEEC00A5D4880ED060A5A48406E00EE52
:1019C000100ADFED590A20EE200ABDEEC00A574882
:1019D00080ED070A5348806E00EE100ADFED520AD0
:1019E00020EE200ABDEEC00A504880ED080A4D489E
:1019F000C06E00EE100ADFED4C0A20EE200ABDEEAC
:101A0000C00A4A4880ED090A4648006F00EE100AF5
:101A1000DFED450A20EE200ABDEEC00A434880ED06
:101A20000A0A4048406F00EE100ADFED3F0A20EE40
:101A3000200ABDEEC00A3D4880ED0B0A3948806F90
:101A400000EE100ADFED380A20EE200ABDEEC00AD3
:101A5000364880ED0C0A3348C06F00EE100ADFED07
:101A6000320A20EE200ABDEEC00A304880ED0D0A91
:101A70002C48D0F8800000EE100ADFED2B0A20EE93
:101A8000200ABDEEC00A294880ED0E0A2548D0F88C
:101A9000840000EE100ADFED240A20EE200ABDEEDD
:101AA000C00A224880ED0F0A1E48D0F8880000EED8
:101AB000100ADFED1D0A20EE200ABDEEC00A1B4809
:101AC00080ED100A1748D0F88C0000EE100ADFED08
:101AD000160A20EE200ABDEEC00A144880ED110A55
:101AE0001048D0F8900000EE100ADFED0F0A20EE4B
:101AF000200ABDEEC00A0D4880ED120A0948D0F850
:101B0000940000EE100ADFED080A20EE200ABDEE78
:101B1000C00A064880ED130A024809E0E0090020E7
:101B20000000C8420715002000007A443C0800204D
:101B3000D0F8980000EE100A5FED050A20EE200AAA
:101B4000BDEEC00AFE4880ED140AFE48D0F89C00A5
:101B500000EE100A5FED0C0A20EE200ABDEEC00A6E
:101B6000F74880ED150AF748D0F8A00000EE100AFB
:101B70005FED130A20EE200ABDEEC00AF04880EDAA
:101B8000160AF048D0F8A40000EE100A5FED1A0A19
:101B900020EE200ABDEEC00AE94880ED170AE948A8
:101BA000D0F8A80000EE100A5FED210A20EE200A0E
:101BB000BDEEC00AE24880ED180AE248D0F8AC0059
:101BC00000EE100A5FED280A20EE200ABDEEC00AE2
:101BD000DB4880ED190ADB48D0F8B00000EE100AAF
:101BE0005FED2F0A20EE200ABDEEC00AD44880ED3A
:101BF0001A0AD448D0F8B40000EE100A5FED360A95
:101C000020EE200ABDEEC00ACD4880ED1B0ACD486B
:101C1000D0F8B80000EE100A5FED3D0A20EE200A71
:101C2000BDEEC00AC64880ED1C0AC648D0F8BC000C
:101C300000EE100A5FED440A20EE200ABDEEC00A55
:101C4000BF4880ED1D0ABF48D0F8C00000EE100A62
:101C50005FED4B0A20EE200ABDEEC00AB84880EDC9
:101C60001E0AB848D0F8C40000EE100A5FED520A10
:101C700020EE200ABDEEC00AB14880ED1F0AB1482F
:101C8000D0F8C80000EE100A5FED590A20EE200AD5
:101C9000BDEEC00AAA4880ED200AAA48D0F8CC00C0
:101CA00000EE100A5FED600A20EE200ABDEEC00AC9
:101CB000A34880ED210AA348D0F8D00000EE100A16
:101CC0005FED670A20EE200ABDEEC00A9C4880ED59
:101CD000220A9C48D0F8D40000EE100A5FED6E0A8C
:101CE00020EE200ABDEEC00A954880ED230A9548F3
:101CF000D0F8D80000EE100A5FED750A20EE200A39
:101D0000BDEEC00A8E4880ED240A8E48807820B946
:101D100000208B49C1F8F4000BE08A488078012844
:101D200003D18749C1F8F40003E002208449C1F8D7
:101D3000F4008448D0F8DC0000EE100AF2EE040A49
:101D400020EE200ABDEEC00A7D4880ED3F0A7D48A6
:101D5000D0F8E00000EE100AF2EE040A20EE200AAD
:101D6000BDEEC00A764880ED400A7648D0F8E4001F
:101D700000EE100AF2EE040A20EE200ABDEEC00AC0
:101D80006F4880ED410A6F48D0F8E80000EE100A75
:101D9000BDEEC00A6A4880ED450A6A48D0F8EC00FA
:101DA00000EE100ABDEEC00A654880ED460A65489F
:101DB000D0F8F00000EE100ABDEEC00A604880EDD9
:101DC000470A6048D0F8F40000EE100ABDEEC00AE1
:101DD0005B4880ED3E0A5B48C07820B90020584936
:101DE000C1F8200103E001205549C1F820017047E6
:101DF00031B582B00024BDF80800642800DD3EBD86
:101E0000FFF78DFD4E48BDF8081050F821000190F5
:101E1000AA222046611CCCB24B490A540522204616
:101E2000611CCCB248490A54AF222046611CCCB296
:101E300045490A54E1222046611CCCB242490A5469
:101E400000222046611CCCB23F490A549DF809206B
:101E50002046611CCCB23C490A549DF8082020461B
:101E6000611CCCB238490A549DF807202046611CF9
:101E7000CCB235490A549DF806202146601CC4B2F4
:101E8000314842549DF805202046611CCCB22E49B1
:101E90000A549DF804202146601CC4B22A484254CA
:101EA000601F294908710025002005E02649095CCA
:101EB0002944CDB2411CC8B2A042F7DB2046611CC8
:101EC000CCB221490D5421461F48FEF7EDFB00BF5F
:101ED00095E77FB505460024AA222146641C1A48CE
:101EE000425405222146641C4254AF222146641C00
:101EF000425400222146641C42542146641C425430
:101F00002146641C45549DF805202146641C42541A
:101F10009DF804202046611CCCB20B490A549DF860
:101F200009202146601CC4B2074842549DF808208D
:101F30002046611CCCB204490A549DF80D2005E0EE
:101F40003C08002007150020E00900202046611C05
:101F5000CCB2F9490A549DF80C202046611CCCB241
:101F6000F5490A549DF821202046611CCCB2F24963
:101F70000A549DF820202046611CCCB2EE490A5438
:101F8000601F08710026002005E0EB49095C314420
:101F9000CEB2411CC8B2A042F7DB2046611CCCB2D5
:101FA000E5490E542146E448FEF77EFB7FBD10B59F
:101FB0008AB0E2480078E249097890FBF1F201FB2F
:101FC0001201DF480078401E814202D10120DD4924
:101FD0004871DA480078DC49097890FBF1F201FB9E
:101FE0001201D9480078401E814202D10120D54912
:101FF0008871D2480078D549097890FBF1F201FB4D
:102000001201D2480078801E814202D10120CD49C0
:10201000C872CA480078CE49097890FBF1F201FBFA
:102020001201CB480078401E814202D10120C549EF
:102030000871C2480078C749097890FBF1F201FBAA
:102040001201C4480078401E814202D10120BD49DE
:10205000C871BA480078C049097890FBF1F201FBD9
:102060001201BD480078801E814202D10120B5498D
:102070004872B2480078B949097890FBF1F201FB47
:102080001201B6480078801E814202D10120AD497C
:102090008872AA480078B249097890FBF1F201FBF6
:1020A0001201AF480078C01E814202D10120A5492B
:1020B0000873A2480078AB49097890FBF1F201FB64
:1020C0001201A8480078C01E814204D19D48407B7F
:1020D000401C9C49487399480078401CC0B29749FD
:1020E0000870C82801DD002008709648C07860B1EB
:1020F00000209449C8704FF4C87364224FF496715D
:1021000000900420FFF7E5FE60E18E48408A4FF61C
:10211000FF71884208DA8B49488AFFF769FE4FF65B
:10212000FF708849488251E186480079E0B100207B
:10213000844908718C494A7B8C49D1ED051AFDEE22
:10214000E11A11EE900A8A49D1ED391AB0EE611AFE
:10215000D1ED381AF0EE610AD1ED371AB0EE610A0E
:102160000021FFF72EFB31E17648007BC0B1002053
:10217000744908737F48D0ED051AF8EEE11AB0EE05
:10218000611AD0ED031AF8EEE11AF0EE610AD0ED13
:10219000041AF8EEE11AB0EE610AFFF782FA15E1CF
:1021A0006848C07A28B100206649C872FFF7D0F9A4
:1021B0000CE16448407988B30020624948716E4858
:1021C000B0F90620B0F904006B49B1F902106B4B6D
:1021D00093ED0B0ABDEEC00A10EE103A1BB2CDE92A
:1021E0000131CDE90302654890ED0A0ABDEEC00A4F
:1021F00010EE100A00B2614C009094ED090ABDEE99
:10220000C00A10EE104A23B25C4CB4F91420B4F9A1
:102210001210B4F91000FFF7D9F8D7E0FFE74948EA
:102220008079A8B1002047498871544890ED160A7A
:10223000F2EE040A20EE200ABDEEC00A10EE100AEB
:1022400002B24F4801884F480068FFF74FF8BDE0E1
:102250003C48C079F0B300203A49C87100BF15E08E
:1022600001218140484A1278114049B1474931F86B
:10227000101001F2DC5109B206AA22F8101003E096
:10228000002106AA22F81010411CC8B20828E7DB7A
:102290000022BDF8260080B2BDF8241089B2CDE935
:1022A000030205920291BDF8220080B2BDF8201011
:1022B00089B2CDE90010BDF81A40A3B2BDF81840AC
:1022C000A2B2BDF81E40A1B2BDF81C40A0B2FEF7FC
:1022D00053FF7BE0FFE71B48407AA8B10020194973
:1022E0004872009001900290294C0390E488A3B2B8
:1022F000274CA488A2B2264C6488A1B2244C24881E
:10230000A0B2FEF79FFE61E00E48807A90B10020F7
:102310000C4988721F4991ED000ADFED1F0A20EE7B
:10232000200ABCEEC00A10EE101A88B20021FEF797
:102330003FFE4BE032E00000E00900206200002098
:1023400063000020CC09002064000020650000200C
:10235000660000206700002068000020690000205F
:102360006A0000206B00002034100020EC100020D8
:102370000C010020A0140020E0020020742900209D
:1023800050030020200300206F000020260B0020B7
:10239000F4020020080300200000C8429448407B5B
:1023A00002280BD10020924948739FED920A002326
:1023B0001A4619461846FEF750FD07E08C48807B08
:1023C00020B1FEF712FD002089498873FEF7FEFC5C
:1023D00000F081FE0AB010BD8749097839B9AA28F2
:1023E00005D10121844A1170844908705FE0824957
:1023F0000978012907D1AF2805D102217E4A117041
:102400007E49487053E07C490978022905D10321AF
:10241000794A11707949887049E077490978032928
:1024200005D10421744A11707449C8703FE07249A3
:10243000097804290AD105216F4A11706F49087182
:102440006F49087000216F4A117030E06A490978BD
:10245000052919D16A490978002915DD68490978E3
:10246000491E674A117067490978664A1278521CFA
:10247000644B1A70491D614A505461490978B1B9D9
:1024800006215D4A117012E05B49097806290BD1DB
:102490000021594A11705B490978491D574A505427
:1024A0000121594A117002E00021534A117070470E
:1024B0002DE9F04105460024AA222146641C534818
:1024C000425405222146641C4254AF222146641C1A
:1024D0004254A0222146641C425400222146641C1E
:1024E000425400270BE03846791CCFB22A5C2046C4
:1024F000611CCCB245490A54322C00DD02E0E85D93
:102500000028F0D100BF601F40490871002600205C
:1025100005E03E49095C3144CEB2411CC8B2A0423C
:10252000F7DB2046611CCCB238490E5421463748AF
:10253000FEF7BAF8BDE8F0812DE9F3410546002425
:10254000AA222146641C3148425405222146641CBB
:102550004254AF222146641C4254A1222146641CED
:10256000425400222146641C42549DF80720214613
:10257000641C42549DF806202146641C42549DF878
:1025800005202046611CCCB220490A549DF8042045
:102590002046611CCCB21D490A5400270BE0384686
:1025A000791CCFB22A5C2046611CCCB217490A5470
:1025B000322C00DD02E0E85D0028F0D100BF601F92
:1025C000124908710026002005E01049095C3144D9
:1025D000CEB2411CC8B2A042F7DB2046611CCCB28F
:1025E0000A490E5421460948FEF75EF8BDE8FC8111
:1025F000CC090020000000006D000020120A00201D
:102600006C0000205E0000205F000020E009002038
:1026100010B5FE488078FE49087008460078022808
:1026200002D10BF01BFC03E0F948007806F0ACFE89
:1026300010BD002801DC002104E0072801DD07218E
:1026400000E0014608460021F24A22F810107047C7
:10265000014600201DE0EF4A32F81020B2F5FA7F63
:102660000EDAEC4A32F810200A44EA4B23F8102024
:1026700001228240E84B1B781A43E74B1A7006E0B0
:1026800001228240E44B1B789343E34A1370421CBF
:10269000D0B20828DFDB704770B5DDE904452BB107
:1026A0000E882EB10E8806440E8001E001260E80B1
:1026B0000E88964202DB2C7000260E8070BD7CB521
:1026C0000546D6480079022824DCD548407808BB66
:1026D000D4484078B8B1D3480078A0B1D148C07888
:1026E00050B1CE48407818B10020CC49C87214E0EF
:1026F0000120CA49C87210E00120CB49487202206B
:10270000C649C87209E00120C749C8710320C349FE
:10271000C87202E00420C149C872C048407B00284A
:1027200031D1BE48007B002837D0BC48C07A38B9C8
:10273000BA48007BB9494873BCA0FFF7B9FE2CE04A
:102740000020B64908730846C07A012803D1BAA010
:10275000FFF7AEFE21E0B148C07A022803D1B6A04F
:10276000FFF7A6FE19E0AD48C07A032803D1B2A056
:10277000FFF79EFE11E0A948C07A04280DD1B2A04F
:10278000FFF796FE09E0A548007B10B9B4A0FFF75B
:102790008FFEA248007BA1494873B648B0F90400F7
:1027A00010F5967F7DDAB348B0F90600002803DD06
:1027B000B048B0F9060003E0AE48B0F90600404268
:1027C00000EE100AB8EEC00AF3EE0E0AB4EEE00A0C
:1027D000F1EE10FA14DDA748B0F9020000EE100A7D
:1027E000B8EEC00AFBEE0E0AB4EEE00AF1EE10FA03
:1027F00006D28A48C07B30B901208849C87302E0FC
:1028000000208649C8739B48B0F9020010F5967FF6
:1028100012DA9848B0F90000B0F5967F0CDD9548C3
:10282000B0F9060010F5967F06DA0120924908708B
:1028300002207A49C8731BE08E48B0F9020010F5F7
:10284000967F12DA8B48B0F9000010F5967F0CDA0B
:102850008848B0F90600B0F5967F06DD012086496C
:10286000087002206D49C87302E000208249087098
:1028700000246A48407B28B100BF4FF47A707F493A
:10288000088003E00224C8207C49088063480C309B
:10289000CDE900407848037878480288784928468E
:1028A00000E002E0FFF7F8FE08E000205B49C87393
:1028B0000846007B022801D1012008736D48B0F959
:1028C000040010F5AF7F03DD00205449887302E057
:1028D0000120524988737CBD002005E00021654A33
:1028E00022F81010411CC8B20428F7DB6148B0F987
:1028F0000400002802DD00205E49888000205D4938
:1029000008804880C8804548407B48B15D48407990
:1029100018B903204149487502E001203F49087277
:10292000704700B503465848008818445649088047
:1029300008460088B0F5FA7F45DB0020088036485D
:10294000007800F00F000F2802D13448807930B1B0
:102950004E480078401C40B24C49087005E04B4896
:102960000078401E40B249490870484890F900007C
:1029700002280ADB00204549087001202749C87158
:102980002949C872FFF7A8FF16E0404890F90000F7
:1029900010F1020F10DC00203C4908701F48C0797C
:1029A00050B100201D49C8711F49C8721B48007CE6
:1029B00010B102201949487535480088354908800A
:1029C00000203349088000BDF0B505AC70CC5CB187
:1029D00000270F80CF788FB98F7817B18F787F1C41
:1029E0008F700127CF7009E00027CF700F88074450
:1029F0000F800F889F4201DD01278F708F789742EB
:102A000002DD357000278F70F0BD00000715002033
:102A10006E000020120B00206F00002034100020F8
:102A200082030020F7000020F8140020556E6C6F20
:102A3000636B204F4B210000556E6C6F636B20461B
:102A400061696C2100000000506F776572204C6F47
:102A5000772C556E6C6F636B204661696C210000AA
:102A6000204643204F7574707574204C6F636B65FE
:102A700064212000260B0020740000207600002036
:102A800072000020F10000208A0000208C0000204D
:102A900070000020780000201EB50446BD48407B31
:102AA00000286ED1BB48807B002873D0BA48B0F9AB
:102AB000020010F5AF7F17DAB748B0F90000B0F5A3
:102AC000AF7F11DDB448B0F9040010F5AF7F0BDA29
:102AD000B148B0F90600B0F5AF7F05DD0120AF4980
:102AE0000870AF49087004E00020AC490870AC4998
:102AF0000870A948B0F90200B0F5AF7F15DDA6480F
:102B0000B0F90000B0F5AF7F0FDDA348B0F90400C5
:102B100010F5AF7F09DAA048B0F9060010F5AF7FD5
:102B200003DA01209F49087002E000209D490870E7
:102B30009948B0F90200B0F5AF7F15DD9648B0F9BD
:102B40000000B0F5AF7F0FDD9348B0F9040010F539
:102B5000AF7F09DA9048B0F90600B0F5AF7F03DD2A
:102B600001209149087002E000208F4908708A48CE
:102B7000B0F90200B0F5AF7F04DD01208B49087089
:102B800008E02EE08448B0F90200322802DA002082
:102B90008649087086480121CDE9001080480378F5
:102BA0004FF47A7283492046FFF776FD8048401E35
:102BB0000121CDE90010794803784FF47A727E49FB
:102BC0002046FFF769FD7D480121784A12784FF4CD
:102BD0007A73CDE900210290052279492046FFF75A
:102BE000F3FE1EBD10B504466A480078002871D077
:102BF0007448007898BB00203AE001218140724A75
:102C000012781140B1B1714931F8101009B2A1F236
:102C1000DC5100EE101AB8EEC00AF7EE040A20EEFE
:102C2000200ABDEEC00A10EE101A09B25A4A22F864
:102C3000101003E00021584A22F81010564931F9CB
:102C4000101011F5FA7F01DC61490CE0524931F9AD
:102C50001010B1F5FA7F03DD4FF4FA7103E00AE0DA
:102C60004D4931F910104C4A22F81010411CC8B2DD
:102C70000828C2DB81E05348007801283FD10020BA
:102C80003AE001218140504A12781140B1B15149D6
:102C900031F8101009B2A1F24C4100EE101AB8EE52
:102CA000C00AF7EE040A20EE200ABDEEC00A10EEBC
:102CB000101A09B2384A22F8101003E00021364AEF
:102CC00022F81010344931F9101011F5FA7F02DCA6
:102CD0003F490CE05DE0304931F91010B1F5FA7F61
:102CE00002DD4FF4FA7102E02B4931F910102A4A43
:102CF00022F81010411CC8B20828C2DB3DE00020B9
:102D000039E001218140304A12781140B1B1324995
:102D100031F8101009B2A1F5806100EE101AB8EE7A
:102D2000C00ADFED2E0A20EE200ABDEEC00A10EE2A
:102D3000101A09B2184A22F8101003E00021164AAE
:102D400022F81010144931F9101011F5FA7F01DC46
:102D50001F490BE0104931F91010B1F5FA7F02DD7F
:102D60004FF4FA7102E00C4931F910100A4A22F8C6
:102D70001010411CC8B20828C3DB2046FFF79FFC97
:102D80002046FFF789FE2046FFF762FC2046FFF74A
:102D9000C8FD10BD34100020260B00208500002047
:102DA000840000208600002087000020880000208A
:102DB000752900207A0000207C000020E00200201D
:102DC000800000206E0000206F00002008250020F9
:102DD0000CFEFFFF18250020F42B00206666263F1E
:102DE000014600201AE0874A125C72B9864A32F81E
:102DF000102042F210739A420BDA834A32F8102004
:102E00000A44814B23F8102003E000227E4B23F874
:102E1000102000227B4B1A54421CD0B20228E2DB65
:102E200079480088B0F57A7F04DC77484088B0F5AF
:102E30007A7F03DD0020754AD07102E00120734AD9
:102E4000D071704710B504462046FFF7C9FF10BD8A
:102E500010B50023002204E0845C1C44E3B2541C3F
:102E6000E2B24C1E9442F7DC421812F8012C9A424E
:102E700000D010BDC278512A38D1427972B9827916
:102E8000634C2270C27952B2624C2270027A52B202
:102E9000614C2270427A614C227027E04279012A0B
:102EA00024D182795A4C2270C279120212B2047A69
:102EB00022435B4C2280427A120212B2847A22436D
:102EC000584C2280C27A120212B2047B2243564C22
:102ED0002280427B120212B2847B2243534C228016
:102EE000C27C4E4C22700122464C2270C278522A7B
:102EF00014D142794AB9C279847942EA04224C4C0D
:102F0000228001223F4C627008E04279012A05D1FB
:102F1000C279847942EA0422464C228000BFA8E7A5
:102F200010B504464448007838B9AA2C05D10120D0
:102F3000414908704148047063E03F480078012827
:102F400007D1222C05D102203B4908703B48447030
:102F500057E039480078022805D103203649087027
:102F6000364884704DE034480078032805D10420A9
:102F7000314908703148C47043E02F480078042874
:102F80000AD105202C4908702C4804712C48047083
:102F900000202C49087034E027480078052819D112
:102FA00027480078002815DD25480078401E244970
:102FB00008702448007823490978491C214A117077
:102FC000401D1E490C541E480078D0B906201A49ED
:102FD000087016E01848007806280FD1002016491E
:102FE000087018480078401D14490C5415480078A2
:102FF000801DC1B21148FFF72BFF02E000200E49EF
:10300000087010BDD6000020D8000020F700002076
:1030100090000020920000209300002091000020EA
:103020009400002096000020980000209A000020C4
:103030009C0000209E000020DD000020360B0020B8
:10304000DC000020D4000020704700BFFEE700BF76
:10305000FEE700BFFEE77047704710B580200DF017
:1030600074FC10B180200DF0C6FC10BD10B506F048
:1030700060FB10BD10B506F0A7FC10BD10B50AF03E
:10308000FDFB10BD10B507F0A4F810BD10B507F09A
:1030900011FA10BD10B507F05EF910BD10B50BF0B8
:1030A0001AF810BD10B514F087F8012014F08FF84D
:1030B00010BD70B5024600200AE0145C864B1D78F6
:1030C0001B785B1C844E3370844B5C55431CD8B218
:1030D0008842F2DB70BD10B57F48007880490978DE
:1030E00088425BDD7C4800787D490978401A3F289A
:1030F0001BDB00207B4908703F207B4908700020C3
:103100000BE077490A780978491C754B19707349A7
:103110008A5C754B411C5A54C8B23F28F1DB4022EF
:103120007149002015F0D3F89FE06E480078401CEC
:103130006C490870084600786C4909788842F3D1D8
:103140000020684908706448007865490978401A89
:1031500065490870002015E05F490978604A1278D7
:10316000891A814208DD5E49097801445B4A525C54
:103170005D4B411C5A5403E000225B4B411C5A54E6
:10318000411CC8B23F28E7DB534800785449087017
:1031900040225549002015F09AF866E04E48007824
:1031A0004F490978884260DA4D480078C0F5807050
:1031B0004949097808443F281BDB00204949087029
:1031C0003F204949087000200BE045490A780978FA
:1031D000491C434B197041498A5C434B411C5A546A
:1031E000C8B23F28F1DB40223F49002015F06FF8BC
:1031F0003BE03C480078401C3A490870084600789B
:103200003A490978884230D100203649087034485C
:10321000007840423049097808443349087000205A
:1032200018E02F490978C1F580712B4A12781144B2
:10323000814209DD2A4909780144C9B2274A525C12
:10324000294B411C5A5403E00022274B411C5A547D
:10325000411CC8B23F28E4DB1F48007820490870B1
:1032600040222149002015F032F810BD10B5044667
:10327000012C02D0032C11D10EE059B923B1012B3E
:1032800005D0022B04D100E000BF402010BD00BFDC
:1032900000BF00BF00BF01E00120F7E700BF002032
:1032A000F4E72DE9F0470646884614469946089FFC
:1032B000022E02D0032E0CD10AE0012504E0605D4D
:1032C000FFF78AF8681CC5B22078A842F7DA00E058
:1032D00000BF00BFBDE8F087E0000020680B0020C1
:1032E000DF000020E1000020680C0020DE0000204C
:1032F00014F0E0BE704700207047002070470020A7
:103300007047002070470020704700207047002061
:103310007047002070470020704700207047002051
:10332000704700207047002070470020704714F05D
:10333000E8BE7047002070470020704714F02CBD95
:10334000704700000179C27801EBC201F64A118092
:103350008179427901EBC201F44A11808178F44A03
:10336000517070470020F349087000BF14E0042832
:1033700005DA0022EE49243121F8102002E0002174
:10338000EB4A51850022EA49143141F820201039D6
:1033900041F82020411CC8B20428E8DB704710B572
:1033A0000446E3484178807881421BD0FFF7DAFF7A
:1033B000E148C07968B9E048407E012809D1DF487A
:1033C000807810B9DD48407918B10120D8490870DB
:1033D00008E00020D6490870D9A0FFF769F800205E
:1033E000D3494870D2484078062874D006DC0628B5
:1033F00072D2DFE800F071103858B0EE09286CD0B6
:1034000004DC07286AD0082866D162E20A2878D04E
:10341000A028F9D13BE0C648007818B3C648407DE3
:1034200058B9C4480078E8B90120C2490870C8A05A
:10343000FFF73EF803F083FB14E0BF48407D02280D
:1034400006D1C6A0FFF734F80020B949487009E05A
:10345000B948407D022805DDC4A0FFF729F8002007
:10346000B349487031E3B448407D022805D1C2A079
:10347000FFF71EF803F072FB08E0AF48407D28B963
:10348000C0A0FFF715F80020A94948701DE3AA481D
:10349000407B38B1BEA0FFF70BF80020A6490873A7
:1034A000A349487011E3A148008801B2A0480185F2
:1034B0009E480088A0B39C4800884FF47A71484326
:1034C00000EE100AF8EEC00A98480088002806DCD2
:1034D0009FEDB40A1CE0ECE0F6E24EE2A6E1B24851
:1034E00090ED011A9148008800EE100AB8EE400AEB
:1034F000B4EEC01AF1EE10FA04D2AB4890ED010A16
:1035000006E08DE28948008800EE100AB8EE400A15
:1035100080EE801ABCEEC10A854880ED070A03E000
:10352000FFE700218248C1618148C06801198048D5
:10353000C160C06818B99DA0FEF7BAFF0AE07C48D8
:10354000C169C068814205D29AA0FEF7B1FF002090
:1035500077494870B9E275480088404201B2744822
:1035600001857248008898B36F4800884FF47A71DB
:10357000484300EE100AF8EEC00A6C4800880028A4
:1035800002DC9FED880A1BE0874890ED020AB1EE4D
:10359000401A6648008800EE100AB8EE400AB4EE01
:1035A000C01AF1EE10FA05D27F4890ED020AB1EE92
:1035B000400A05E05D48008800EE100AB8EE400AB7
:1035C00080EE801ABCEEC10A594880ED070A04E07B
:1035D00000E019E000215648C1615548C068011952
:1035E0005348C160C06818B975A0FEF761FF0AE0D2
:1035F0004F48C169C068814205D274A0FEF758FFE8
:1036000000204B49487060E24848008800B24849B1
:1036100088844648008878B3434800884FF47A711C
:10362000484300EE100AF8EEC00A4048008800281F
:1036300002DC9FED5C0A17E05B4890ED001A3B4806
:10364000008800EE100AB8EE400AB4EEC01AF1EE9F
:1036500010FA03D2544890ED000A05E03348008880
:1036600000EE100AB8EE400A80EE801ABCEEC10AE5
:103670002F4880ED050A03E0FFE700202C49486150
:103680002B48406820442A4948600846406818B9D9
:1036900051A0FEF70DFF0BE0254840692449496819
:1036A000884205D24FA0FEF703FF00202049487052
:1036B0000BE21E480088404200B21D4988841B4826
:1036C000008878B3184800884FF47A71484300EEB8
:1036D000100AF8EEC00A15480088002802DC9FEDA9
:1036E000310A17E0304890ED001A1048008800EECB
:1036F000100AB8EE400AB4EEC01AF1EE10FA03D286
:10370000294890ED000A05E00848008800EE100AFC
:10371000B8EE400A80EE801ABCEEC10A044880ED83
:10372000050A6AE066E00000EC000020EE000020E0
:10373000C80F0020F000002034100020F10000200D
:103740004643205374617465204572726F72210084
:1037500054616B65206F66662100000054616B65E3
:10376000206F6666204F4B2100000000434D44202F
:103770004572726F722100004C616E64696E672140
:10378000000000004C616E64696E67204F4B2100A1
:10379000456D657267656E63792073746F70204F35
:1037A0004B2100000000000054100020476F2075DE
:1037B00070210000476F207570204F4B21000000E2
:1037C000476F20646F776E2100000000476F206410
:1037D0006F776E204F4B2100476F206168656164F1
:1037E00021000000476F206168656164204F4B2114
:1037F000000000000020BA494861B94840682044F0
:10380000B74948600846406818B9B6A0FEF750FEB0
:103810000BE0B3484069B2494968884205D2B4A078
:10382000FEF746FE0020AE4948704EE1B3480088DE
:1038300001B2AB48C184B148008878B3B048008871
:103840004FF47A71484300EE100AF8EEC00AAB4814
:103850000088002802DC1FED2D0A17E0A94890ED32
:10386000001AA648008800EE100AB8EE400AB4EE2E
:10387000C01AF1EE10FA03D2A24890ED000A05E05A
:103880009E48008800EE100AB8EE400A80EE801ACA
:10389000BCEEC10A924880ED060A03E0FFE7002172
:1038A0008F4881618E48806801198D4881608068E9
:1038B00018B995A0FEF7FCFD0AE089488169806887
:1038C000814205D293A0FEF7F3FD002084494870A1
:1038D000FBE08A480088404201B28148C1848748A1
:1038E000008878B3864800884FF47A71484300EE28
:1038F000100AF8EEC00A81480088002802DC1FED9B
:10390000570A17E07F4890ED001A7C48008800EEC7
:10391000100AB8EE400AB4EEC01AF1EE10FA03D263
:10392000784890ED000A05E07448008800EE100A1F
:10393000B8EE400A80EE801ABCEEC10A684880EDFD
:10394000060A03E0FFE7002165488161644880685A
:10395000011963488160806818B971A0FEF7A8FD5D
:103960000AE05F4881698068814205D26FA0FEF756
:103970009FFD00205A494870A7E06048008800B2C7
:10398000574948855D48008878B35D4800884FF402
:103990007A71484300EE100AF8EEC00A57480088D2
:1039A000002802DC1FED810A17E0564890ED031A4B
:1039B0005248008800EE100AB8EE400AB4EEC01A71
:1039C000F1EE10FA03D24F4890ED030A05E04B48A0
:1039D000008800EE100AB8EE400A80EE801ABCEEB5
:1039E000C10A3F4880ED080A03E0FFE700213C4898
:1039F00001623B480069011939480161006918B941
:103A00004EA0FEF755FD0AE03548016A0069814283
:103A100005D24DA0FEF74CFD00203149487054E01E
:103A200036480088404200B22D4948853348008816
:103A300078B3334800884FF47A71484300EE100A97
:103A4000F8EEC00A2D480088002802DC1FEDAB0A02
:103A500017E02C4890ED031A2848008800EE100A61
:103A6000B8EE400AB4EEC01AF1EE10FA03D22548BF
:103A700090ED030A05E02148008800EE100AB8EE38
:103A8000400A80EE801ABCEEC10A154880ED080A93
:103A900003E0FFE7002112480162114800690119A3
:103AA0000F480161006918B92BA0FEF701FD0AE07B
:103AB0000B48016A0069814205D22AA0FEF7F8FC92
:103AC00000200749487000E000BF00BF044840786C
:103AD00008B9FFF747FC02484178817010BD00002B
:103AE000C80F0020476F206261636B210000000057
:103AF000476F206261636B204F4B2100EE00002076
:103B0000EC00002054100020476F206C6566742183
:103B100000000000476F206C656674204F4B210049
:103B2000476F20726967687421000000476F207238
:103B300069676874204F4B21000000005475726E55
:103B4000206C6566742100005475726E206C656689
:103B500074204F4B210000005475726E207269670B
:103B6000687421005475726E207269676874204F02
:103B70004B2100000748407B08B9012000E00020ED
:103B80000549087001204870704710B505F0E9FA42
:103B900010BD0000341000208203002090ED031AB5
:103BA000B5EEC01AF1EE10FA20DD90ED051AD0ED59
:103BB000031AF1EE611AB4EEE11AF1EE10FA04D82C
:103BC00090ED031AB1EE411A0DE090ED051AD0ED1B
:103BD000031AB4EEE11AF1EE10FA02DD90ED031AC9
:103BE00001E090ED051AF0EE410A01E0D0ED050A82
:103BF00090ED001A31EE201A80ED061A90ED011AB0
:103C0000D0ED061A31EE611AD0ED021A21EE211A1A
:103C100080ED041A90ED051AD0ED041A01EE801A19
:103C200080ED051A7047D0ED000A90ED041A30EED1
:103C3000811AD0ED050A41EE000AC0ED050AD0ED6B
:103C4000010A90ED051A70EEC10A90ED021A60EEBD
:103C5000810AC0ED040AD0ED030AF5EEC00AF1EEC8
:103C600010FA1FDDD0ED040A90ED031AB1EE411AEF
:103C7000F4EEC10AF1EE10FA04D8D0ED030AF1EE29
:103C8000600A0DE0D0ED040A90ED031AF4EEC10ACB
:103C9000F1EE10FA02DDD0ED030A01E0D0ED040AE6
:103CA000C0ED040A7047F0EE401A9FEDFC2A20EEAA
:103CB000822A22EE212AB7EE003AC3EE022AB7EE9C
:103CC000002A32EE822AB7EE003AC3EE022A90EDC5
:103CD000002A31EE423A90ED002A02EE832A80ED6E
:103CE000002AB5EEC01AF1EE10FA02DDB0EE412A5C
:103CF00001E0B1EE412AB0EE420A90ED002AF1EE69
:103D0000402AB4EEE22AF1EE10FA02D8B1EE402ACF
:103D10000BE090ED002AB4EEC02AF1EE10FA02DDBD
:103D2000B0EE402A01E090ED002A80ED012A7047B4
:103D3000F0EE401A9FEDD92A20EE822A22EE212AA7
:103D4000B7EE003AC3EE022AB7EE002A32EE822A1C
:103D5000B7EE003AC3EE022A90ED002A31EE423A65
:103D600090ED002A02EE832A80ED002A90ED002AD1
:103D7000B5EEC02AF1EE10FA02DD90ED002A03E064
:103D800090ED002AB1EE422AB0EE420AB1EE402A8E
:103D9000B4EEC21AF1EE10FA02D8B1EE402A09E0F0
:103DA000B4EEC01AF1EE10FA02DDB0EE402A01E0E6
:103DB000B0EE412A80ED012A7047F0EE401A9FEDE7
:103DC000B72A20EE822A22EE212AB7EE003AC3EE6D
:103DD000022AB7EE002A32EE822AB7EE003AC3EE8C
:103DE000022A90ED002A31EE423A90ED002A02EECE
:103DF000832A80ED002AB5EEC01AF1EE10FA02DD3A
:103E0000B0EE412A01E0B1EE412AB0EE420A90ED57
:103E1000002AF1EE402AB4EEE22AF1EE10FA02D8BE
:103E2000B1EE402A0BE090ED002AB4EEC02AF1EE8C
:103E300010FA02DDB0EE402A01E090ED002A80ED9C
:103E4000002A80ED012A70472DE9F84F04460D46FF
:103E5000DDF828804FF001094FF0000A0126B34633
:103E6000CDF800B00127DFED8E0AB0EE600A002029
:103E70008446D2F808B0C2F80CB092F800B00BF14A
:103E8000010B0BF0FF0B82F800B0AB4502DB834661
:103E900082F800B092F800B044F82B80D2F80CB051
:103EA000A8EB0B0B00EE90BAB8EEE01A00EE903AD9
:103EB000F8EE600AC1EE201AB0EE610AB5EEC00A53
:103EC000F1EE10FA02DDF0EE400A01E0F1EE400AF8
:103ED000B7EE001AF4EEC10AF1EE10FA2BD2B5EEED
:103EE000C00AF1EE10FA02DDB0EE401A01E0B1EEC8
:103EF000401A00EE903AF8EE600A61EE200AB0EE49
:103F0000001AF4EEC10AF1EE10FA04D2DFED640AF1
:103F1000B0EE600A0FE0B5EEC00AF1EE10FA02DD75
:103F20004FF0010B01E04FF0FF3B00EE90BAF8EECE
:103F3000E00AB0EE600AD06800BF00210DE054F83E
:103F400021B0ABEB000B54F821E0AEEB000E0BFB05
:103F50000ECC01F1010B0FFA8BF1A942EFDBD2F885
:103F600004B0ACEB0B0BBBF1000F11DDB9F1000F8E
:103F700003D14FF0000BCDF800B04FF00109012F35
:103F800002D14FF0FF3B01E04FF0010B5F4607E02D
:103F90004FF000099E4203DA06F1010B0BF0FF0619
:103FA000C2F804C04FF0000C00EE900AB8EEE01A20
:103FB00000EE907AF8EEE00A00EE801AFDEEC10AFB
:103FC00010EE900A0AF1010B0BF0FF0BDA469B454D
:103FD00002DDE346CDF800B0022E03DB4FF0000B0C
:103FE000CDF800B0DDF800B0BBF1010FA5D09060B6
:103FF000D2E902BEABEB0E0BC2F810B0BDE8F88FF1
:1040000070B505460C461678761CF6B21670A642B8
:1040100001DB00261670167805EB860686ED000A91
:10402000002009E005EB800696ED001A03EB800600
:1040300086ED001A461CF0B2A042F3DB002029E016
:10404000002121E003EB810696ED001A4E1C03EBE4
:104050008606D6ED001AB4EEE11AF1EE10FA11DD83
:104060004E1C03EB8606D6ED000A03EB810696EDA7
:10407000001A4E1C03EB860686ED001A03EB810640
:10408000C6ED000A4E1CF1B2661E361A8E42D9DC0D
:10409000461CF0B2661E8642D2DC70BDC3F5C84035
:1040A0000000000030B50C4615886D1CADB21580BF
:1040B000A54201DB00251580158800EB8505D5EDAF
:1040C000000A158800EB850585ED000A70EE601A80
:1040D00001EE104AB8EE412A81EE821AD3ED001AA1
:1040E00031EE211A83ED001A93ED001AD3ED001A78
:1040F00070EE611ABFEE002AF4EEC21AF1EE10FA69
:1041000002D8FFEE001A11E0D3ED001A70EE611A2A
:10411000B7EE002AF4EEC21AF1EE10FA02DDF7EE65
:10412000001A03E0D3ED001A70EE611A9FEDA82A81
:1041300002EE211A83ED001A30BD5FED281A60EE01
:10414000211A21EEA02AF7EE002AC2EE821AB7EE5B
:10415000002A71EE821AF7EE002A82EEA12AD0ED33
:10416000001A71EE612AD0ED001A42EE221AC0ED5B
:10417000001A704770B52DED0A8BB0EE408AF0EE54
:10418000608AB0EE419AF0EE619A044694ED001B0D
:10419000B0EE410AF0EE610A53EC102B51EC190B12
:1041A00018F0E0FE41EC1B0B1FED440A28EE000A5C
:1041B00020EE280AB7EE001AC1EE000AB7EE000A98
:1041C00030EE800AF7EE000A80EE801A11EE105AE7
:1041D000284618F06FFF41EC1C0B53EC1B2B18F01A
:1041E000C7FE41EC1A0B94ED001BB0EE410AF0EE55
:1041F000610A53EC102B18F014FEC4E90001BDEC69
:104200000A8B70BD90ED001A30EEC11AB4EEC01AE0
:10421000F1EE10FA06DD90ED001A31EE001A80ED95
:10422000001A13E090ED001A30EEC11AF1EE401AB8
:10423000B4EEE11AF1EE10FA06D290ED001A31EE6A
:10424000401A80ED001A01E0C0ED000A7047B0EEA0
:10425000402A1FED6E0A20EE800A20EE020AB7EE19
:10426000003AC3EE002AB7EE000A32EE800AB7EE3B
:10427000003AC3EE002A90ED000A31EE403A90ED8C
:10428000000A02EE830A80ED000A90ED000AF1EECA
:10429000612AB4EEE20AF1EE10FA02D8B1EE610A38
:1042A0000BE090ED000AB4EEE10AF1EE10FA02DD47
:1042B000B0EE610A01E090ED000A80ED000A90ED99
:1042C000000A31EE400A704770B504460D461646A6
:1042D000D4ED020A60EEA00A94ED011AD4ED011AA1
:1042E00041EE210AB0EE600A00F0E4FE394880EDAC
:1042F000000AD4ED020A60EEA00A94ED001AD4ED93
:10430000001A41EE210AB0EE600A00F0D3FE3248F6
:1043100080ED000A94ED020AB5EEC00AF1EE10FA43
:1043200002D24FF0FF3000E001202C49087095EDDB
:10433000000A2848D0ED000A60EE200A94ED001A29
:10434000084690F9000000EE100AB8EEC00A21EE0F
:10435000000A95ED021A40EE410AC6ED000A084631
:1043600090F9000000EE100AB8EEC00A1A48D0ED2D
:10437000000A20EE200AD5ED010A20EE200AD4ED35
:10438000010A95ED021A00EEC10A86ED010A94EDCC
:10439000000AD5ED000A20EE200AD4ED010A95EDC1
:1043A000011A00EE810AD4ED020A95ED021A00EE20
:1043B000810A86ED020A70BD70B504460D461646A8
:1043C000324629462046FFF77FFF70BD7047000048
:1043D000ACC527370401002008010020000100209F
:1043E00090ED000AD1ED000A20EE200AD0ED010A7E
:1043F00091ED011A00EE810A82ED000A90ED000AAB
:10440000D1ED010AF1EE600A20EE200AD0ED010A9A
:1044100091ED001A00EE810A82ED010A704790EDDD
:10442000000AD1ED000A20EE200AD0ED010A91ED3C
:10443000011AB1EE411A00EE810A82ED000A90EDF8
:10444000000AD1ED010A20EE200AD0ED010A91ED1B
:10445000001A00EE810A82ED010A704730B502466B
:104460000B46002022E0DFEDF70AB0EE600A0021E3
:1044700014E000EB4004F44D05EB840404EB8104EC
:1044800094ED001A02EB8104D4ED001AF0EE400A1C
:1044900041EE810AB0EE600A4C1CE1B20329E8DB70
:1044A00003EB800181ED000A411CC8B20328DADB6E
:1044B00030BD2DE9F0412DED068B86B0B0EE409A6F
:1044C0000546884617461E46129C94ED000AD4ED18
:1044D000010A20EE200ADD4880ED000A94ED000A72
:1044E000D4ED020A20EE200AD94880ED000A94EDAE
:1044F000010A20EE000AD74880ED000A94ED010A77
:10450000D4ED030A20EE200AD34880ED000A94ED92
:10451000020A20EE000AD14880ED000A94ED020A5A
:10452000D4ED030A20EE200ACD4880ED000A94ED78
:10453000030A20EE000ACB4880ED000A94ED010A40
:10454000D4ED020A20EE200AC74880ED000A94ED5F
:10455000000AD4ED030A20EE200AC44880ED000AC8
:10456000287DE0B300203FE0002100EE101A00BFDC
:1045700018E001EB4102B44B03EB820202EB800234
:1045800092ED001A04F17C0202EB8102D2ED001AD6
:10459000F8EEC00A41EE810AFDEEE00AB0EE600AD4
:1045A0004A1CD1B20329E4DBF8EEC00A04F1880109
:1045B00001EB8001C1ED000A57F8201000EE901ABF
:1045C000F8EEE00A04F1880101EB800191ED001A98
:1045D00070EEC10A04F1940101EB800100E006E0F5
:1045E000C1ED000A411CC8B20328BDDB11E0002068
:1045F0000DE057F8201000EE101AB8EEC00A04F1D2
:10460000940101EB800181ED000A411CC8B203282E
:10461000EFDBD4ED250A60EEA00A94ED261AD4ED66
:10462000261A41EE210A94ED271AD4ED271A41EEFD
:10463000210AB0EE600A00F017FDF0EE408AF5EEB8
:10464000C08AF1EE10FA02D19FED7E0A03E0F7EE88
:10465000000A80EEA80AF0EE409A00200EE004F175
:10466000940101EB800191ED000A20EE280A03A9D4
:1046700001EB800181ED000A411CC8B20328EEDB8A
:10468000764890ED000AF0EE000A20EE200A754808
:10469000D0ED000AB0EE001A01EE200AF7EE000A93
:1046A00030EEC00A84ED040A674880ED000A6E48C7
:1046B00090ED000AF0EE000A20EE200A6B48D0EDE3
:1046C000000AB0EE001A01EE600A84ED050A5E48A9
:1046D00080ED010A604890ED000AF0EE000A20EE3D
:1046E000200A5B48D0ED000AB0EE001A01EE200A65
:1046F00084ED060A544880ED020A5B4890ED000AFA
:10470000F0EE000A20EE200A5848D0ED000AB0EE84
:10471000001A01EE200A84ED070A4B4880ED030AD7
:104720004C4890ED000AF0EE000A20EE200A4D48B9
:10473000D0ED000AB0EE001A01EE200AF7EE000AF2
:1047400030EEC00A84ED080A3F4880ED040A444870
:1047500090ED000AF0EE000A20EE200A3B48D0ED72
:10476000000AB0EE001A01EE600A84ED090A36482C
:1047700080ED050A384890ED000AF0EE000A20EEC0
:10478000200A3348D0ED000AB0EE001A01EE600AAC
:1047900084ED0A0A2C4880ED060A314890ED000AA3
:1047A000F0EE000A20EE200A2848D0ED000AB0EE14
:1047B000001A01EE200A84ED0B0A234880ED070A57
:1047C000244890ED000AF0EE000A20EE200A23486B
:1047D000D0ED000AB0EE001A01EE200AF7EE000A52
:1047E00030EEC00A84ED0C0A174880ED080A90EDFF
:1047F000000A84ED0D0A90ED030A84ED0E0A0020F4
:104800001BE057F8201000EE101AB8EEC00A04F1B1
:10481000280101EB8001D1ED000A9FED151A01EE90
:10482000600ABDEEC00AB8EEC00A04F1400101EB17
:10483000800181ED000A411CC8B20328E1DB0020A1
:1048400042E000000000000064100020F40100209D
:10485000F8010020FC0100200002002004020020DA
:10486000080200200C020020100200201402002088
:1048700000407544002100EE101A00BF18E000EB64
:104880004002F74B03EB820202EB810292ED001A29
:1048900004F1400202EB8102D2ED001AF8EEC00AE8
:1048A00041EE810AFDEEE00AB0EE600A4A1CD1B288
:1048B0000329E4DBF8EEC00A04F14C0101EB8001AE
:1048C000C1ED000A411CC8B20328D3DB04F1580231
:1048D000E44904F14C00FFF783FD9DED040AD4ED9B
:1048E0000C0A20EE200AD4ED0B0A9DED051A00EE0D
:1048F000C10ADD4880ED000A9DED030AD4ED0C0AE3
:1049000020EE200AD4ED0A0A9DED051A10EE810A68
:1049100080ED010A9DED040AD4ED0A0A20EE200A7A
:10492000D4ED0B0A9DED031A10EE810A80ED020A08
:1049300000200CE036F9101000EE101AB8EEC00A94
:10494000CA4901EB800181ED000A411CC8B203286D
:10495000F0DB308818B9708808B9B08848B304F122
:104960006401C248FFF77AFDD4ED190A60EEA00A8F
:1049700094ED1A1AD4ED1A1A41EE210AB0EE600A2B
:1049800000F072FBB0EE40AA94ED190A20EE0A0A7C
:10499000B74880ED020A94ED1A0A20EE0A0A80ED6B
:1049A000030A0146083000F067FEB24880ED000AB5
:1049B00000BF00207CE09FEDB00AF4EEC09AF1EE5B
:1049C00010FA06DC9FEDAD0AF4EEC09AF1EE10FA93
:1049D00008D21FED640AA44981ED020A81ED010AA3
:1049E00081ED000AA64901EB800191ED000A9E4984
:1049F00001EB8001D1ED000A9FEDA21AF4EEC10A8D
:104A0000F1EE10FA02D8DFED9F0A13E0964901EBB0
:104A10008001D1ED000A9FED9C1AF4EEC10AF1EE7F
:104A200010FA02DDDFED980A04E08F4901EB800106
:104A3000D1ED000A60EE890A944991ED001A00EE6A
:104A4000810A8F4901EB800181ED000A864901EB63
:104A5000800191ED000A8A4901EB8001D1ED000A45
:104A600070EE200A08EB800191ED000A884991ED73
:104A7000001A00EE810A04F1280101EB8001D1ED5A
:104A8000000A7C4991ED001A60EE810A814991ED9E
:104A9000001A00EE810A20EE090AF0EE000A80EE0C
:104AA000201A694601EB800181ED001A411CC8B251
:104AB000032880DB94ED000AD4ED010A9DED001A75
:104AC00000EEC10AD4ED020A9DED011A00EEC10A02
:104AD000D4ED030A9DED021A00EEC10A84ED000A2E
:104AE00094ED010AD4ED000A9DED001A00EE810A52
:104AF000D4ED020A9DED021A00EE810AD4ED030AFC
:104B00009DED011A00EEC10A84ED010A94ED000A40
:104B1000DDED010A20EE200AD4ED010A9DED021A16
:104B200000EEC10AD4ED020A30EE200AD4ED030AE9
:104B30009DED001A00EE810A84ED020A94ED000A50
:104B4000DDED020A20EE200AD4ED010A9DED011AE6
:104B500000EE810AD4ED020A9DED001A00EEC10AB2
:104B6000D4ED030A30EE200A84ED030AD4ED000AE6
:104B700060EEA00A94ED011AD4ED011A41EE210A6B
:104B800094ED021AD4ED021A41EE210A94ED031AB3
:104B9000D4ED031A41EE210AB0EE600A00F064FA87
:104BA000B0EE408A94ED000A20EE080A84ED000A77
:104BB00094ED010A20EE080A84ED010A94ED020A40
:104BC00020EE080A84ED020A94ED030A20EE080A9A
:104BD00084ED030AE87C38B91FEDE60A2D4880ED24
:104BE000000A0020687433E0687C60B3B2EE040A07
:104BF000284880ED000A1F4890ED000AB5EEC00A73
:104C0000F1EE10FA24D090ED000AB5EEC00AF1EEF4
:104C100010FA02DD90ED000A04E0164890ED000A5B
:104C2000B1EE400A10EE101A084618F043FA41ECB3
:104C30001A0B9FED190B53EC102B18F04FFA07D2FB
:104C40000020687404E095ED020A124880ED000A25
:104C5000A87C38BB9FED120A0D4880ED000A97E052
:104C6000641000204001002088100020A0100020C7
:104C70003C020020180200200080844400006144AF
:104C800094100020CDCCCCBDCDCCCC3D5402002026
:104C900050020020580200207B14AE47E17A943F76
:104CA00000000000FFE7287C50B995ED000A80481D
:104CB00080ED000A95ED010A7E4880ED000A67E06C
:104CC000B2EE040A7A4880ED000A1FED0B0A79481B
:104CD00080ED000A784890ED000AB5EEC00AF1EECA
:104CE00010FA02DD90ED000A04E0734890ED000A2E
:104CF000B1EE400A7048D0ED010AF5EEC00AF1EEBF
:104D000010FA02DDD0ED010A04E06B48D0ED010A93
:104D1000F1EE600A30EE200A684880ED000A90ED5E
:104D2000000AB5EEC00AF1EE10FA02D81FED240A0F
:104D30000FE0624890ED000AF7EE000AB4EEE00AD8
:104D4000F1EE10FA02DDB7EE000A02E05B4890EDEA
:104D5000000A5A4880ED000A90ED000ADFED580A7B
:104D6000B4EEE00AF1EE10FA0FD2687C68B955484B
:104D70000088801C5349088008460088B0F5C87F29
:104D800006DD00200880287402E000204D490880DC
:104D900006B0BDEC068BBDE8F08110B52DED028BA1
:104DA0004948D0ED060A90ED061AB7EE000A00EE6B
:104DB000C10AB5EEC00AF1EE10FA02D81FED480A9A
:104DC0001BE04148D0ED060A90ED061AB7EE000A46
:104DD00000EEC10AF7EE000AB4EEE00AF1EE10FAB6
:104DE00002DDB7EE000A08E03748D0ED060A90ED84
:104DF000061AB7EE000A00EEC10A344880ED000A38
:104E0000334890ED0C0AB5EEC00AF1EE10FA02DD5F
:104E100090ED0C0A04E02E4890ED0C0AB1EE400A29
:104E2000DFED270AB4EEE00AF1EE10FA3CDD274888
:104E300090ED000A00F03EF9B0EE408A2248D0ED35
:104E4000060AB0EE600AF0EE480A00F052F8DFED14
:104E5000210A20EE200A1E4880ED380A1A4890EDFB
:104E6000081AF0EE410A90ED071AB0EE410A00F080
:104E700040F8DFED180A20EE200A154880ED370AC9
:104E8000114890ED001AF0EE410A90ED031AB0EED1
:104E9000410A00F02EF8B1EE400ADFED0E0A20EED6
:104EA000200A0B4880ED390ABDEC028B10BD0000D2
:104EB0005002002054020020881000201C02002014
:104EC000CDCC4C3D20020020641000204C0200207C
:104ED0000C01002033336542F0EE400AF5EEC00AC3
:104EE000F1EE10FA02DBB0EE600A7047B1EE600A34
:104EF000FBE700B5B0EE403AB0EE602AB5EEC03A3E
:104F0000F1EE10FA04D0B5EEC02AF1EE10FA02D19B
:104F10009FEDFC1A99E0B0EE430AFFF7DDFFF0EEDB
:104F2000403AB0EE420AFFF7D7FFF0EE402AF4EE27
:104F3000E23AF1EE10FA02D283EEA24A01E082EEEA
:104F4000A34A9FEDF10AB4EEC04AF1EE10FA02D284
:104F5000F0EE441A2DE0DFEDED0AB6EE000A14EE95
:104F6000200AF0EE404ABDEEE40A10EE100A00EE10
:104F7000100AB8EEC00A34EEC00AF0EE404AE44926
:104F800001EB800191ED000AF0EE401AE04A411C6D
:104F900002EB810191ED000A114601EB8001D1ED98
:104FA000000A70EE600AB0EE610A00EEA40AF0EEAC
:104FB000401AF4EEE32AF1EE10FA20DDB5EEC02A35
:104FC000F1EE10FA0ADBB5EEC03AF1EE10FA02DBB0
:104FD000B0EE611A39E0B1EE611A36E09FEDCD1AFC
:104FE000B5EEC03AF1EE10FA04DB31EE610AB0EE34
:104FF000401A2AE031EEC10AB0EE401A25E0B5EEC3
:10500000C03AF1EE10FA10DB9FEDC31AB5EEC02ADC
:10501000F1EE10FA04DB31EE610AB0EE401A14E052
:1050200031EE210AB0EE401A0FE09FEDBC1AB5EE4A
:10503000C02AF1EE10FA04DB31EE210AB0EE401A7C
:1050400003E031EE610AB0EE401AB0EE410A00BD55
:1050500000B5B0EE405AF0EE605AF0EE450AB0EE00
:10506000650AFFF746FF00BDF0EE400AF6EE001AB3
:1050700060EEA11AB0EE611AB0EE600A10EE100AEE
:10508000A749A1EB600000EE100A21EE002AF7EE1E
:10509000081A42EE401A61EE801AB0EE610A21EE63
:1050A000002AF7EE081A42EE401A61EE801AB0EEBE
:1050B000610A704700B5F0EE402AB0EE620AFFF7D1
:1050C000D3FF20EE220A00BD10B52DED0A8BB0EE05
:1050D000409AF0EE609A9FED930B53EC102B51EC3D
:1050E000190B17F0FBFF18D29FED900B53EC102B10
:1050F00051EC190B17F03CFF41EC1B0B9FED8D0B96
:1051000053EC102B17F08DFE41EC1A0B53EC192BBE
:1051100017F02EFF41EC180B17E09FED840B53ECBA
:10512000102B51EC190B17F023FF41EC1B0B9FEDDB
:10513000810B53EC102B17F018FF41EC1A0B53ECBA
:10514000192B17F015FF41EC180B9FED760B53EC64
:10515000102B51EC180B17F0C1FF20D29FED770BED
:1051600053EC102B51EC180B17F05BFE41EC1C0BB1
:105170009FED740B53EC102B17F0FAFE41EC1B0B58
:105180009FED6E0B53EC102B17F04BFE41EC1A0BFE
:1051900053EC182B17F0ECFE41EC180B1FE09FEDC1
:1051A000670B53EC102B51EC180B17F0DBFE41ECA6
:1051B0001C0B9FED660B53EC102B17F0D9FE41EC46
:1051C0001B0B9FED5E0B53EC102B17F02AFE41ECEE
:1051D0001A0B53EC182B17F0CBFE41EC180BB0EE6A
:1051E000480AF0EE680ABDEC0A8B10BD10B52DED33
:1051F000068BB0EE408AF0EE608A01249FED550BDD
:1052000053EC102B51EC180B17F080FF0AD89FEDD0
:10521000510B53EC102B51EC180B17F0A3FE41EC83
:10522000180BA41E204617F015FF41EC190BB0EE29
:10523000480AF0EE680AFFF747FFB0EE40AAF0EE2A
:1052400060AA53EC192B51EC1A0B17F091FE41ECAC
:10525000100BBDEC068B10BD10B52DED088BB0EE1C
:10526000408AF0EE608A01249FED3C0B53EC102B3A
:1052700051EC180B17F0D5FD41EC180B9FED350BD9
:1052800053EC102B51EC180B17F040FF0AD8A41E5A
:105290009FED300B53EC102B51EC180B17F062FE06
:1052A00041EC180B204617F0D5FE41EC1A0BB0EE7E
:1052B000480AF0EE680AFFF799FFB0EE40BAF0EE48
:1052C00060BA53EC1A2B51EC1B0B17F051FE41EC5A
:1052D000190B17F033FF00EE100ABDEC088B10BD60
:1052E000F0EE401AF4EEE01AF1EE10FA3ADD31EE8B
:1052F000C10AB4EEE00AF1EE10FA3CD2B0EE600A58
:1053000039E00000000000008180803B0000804305
:105310000CD50108DB0F4940DB0FC93FDB0FC9BFCC
:10532000DF59375F0000000000000000000000604F
:105330002FF0D93F00000060305FF43F0000000014
:105340000000F03F000000C0CCCCCCBF000000C08B
:10535000CCCCCC3FF1D4C853FB210940F1D4C85385
:10536000FB21F93F31EE810AB4EEE00AF1EE10FACA
:1053700001DDB0EE600A7047F0EE401AB1EE412A4E
:1053800032EE202AB4EEE12AF1EE10FA09D231EE23
:10539000202AB4EEE12AF1EE10FA02DDB0EE600A46
:1053A00001E0B0EE610A7047F0EE402AB5EEC01A97
:1053B000F1EE10FA02DDB0EE410A01E0B1EE410A71
:1053C000B6EE003A22EE033A23EE213AB4EEC30AD7
:1053D000F1EE10FA06D29FEDD40A20EE800AF0EE2C
:1053E000400A4DE0B5EEC01AF1EE10FA02DDB0EE63
:1053F000410A01E0B1EE410A22EE213AB4EEC30ABD
:10540000F1EE10FA06D29FEDC90A20EE800AF0EE06
:10541000400A35E0B5EEC01AF1EE10FA02DDB0EE4A
:10542000410A01E0B1EE410AB4EEE10AF1EE10FAF0
:1054300006D2B6EE000A20EE800AF0EE400A1FE027
:10544000B5EEC01AF1EE10FA02DDB0EE410A01E04D
:10545000B1EE410AB0EE003A21EE833AB4EEC30A4F
:10546000F1EE10FA06D29FEDB20A20EE800AF0EEBD
:10547000400A05E09FEDAF0A20EE800AF0EE400AF8
:105480009FEDAD0A20EE800A20EE223AF7EE003AB8
:1054900083EE830AB7EE003A30EE030AF7EE003AE5
:1054A00083EE803A90ED000A71EE403A90ED000AEA
:1054B00003EE230A80ED000A90ED000AB1EE423AB5
:1054C00023EE213AB4EEC30AF1EE10FA04D8B1EE9D
:1054D000420A20EE210A0DE090ED000A22EE213A68
:1054E000B4EEC30AF1EE10FA02DD22EE210A01E069
:1054F00090ED000A80ED000A90ED000A31EE400ABE
:10550000704710B52DED028BB0EE408AF0EE608A48
:105510009FED8A0B53EC102B51EC180B17F0F6FD96
:105520000CD29FED880B53EC102B51EC180B17F09D
:1055300019FD41EC100BBDEC028B10BD9FED830BF0
:1055400053EC102B51EC180B17F0C8FD0AD29FED4D
:105550007D0B53EC102B51EC180B17F062FC41EC57
:10556000100BE8E7B0EE480AF0EE680AE3E710B582
:1055700004460B46F0EE403AD4ED000A60EEA00A75
:1055800093ED001AD3ED001A41EE210AB0EE600A45
:10559000FFF790FDB0EE403AB5EEC03AF1EE10FAEA
:1055A00002D81FEDA80A09E0B4EEE33AF1EE10FAD2
:1055B00002DDB0EE630A01E0B0EE430AB0EE404A0D
:1055C000B5EEC03AF1EE10FA06D11FEDB20A82ED47
:1055D000010A82ED000A0FE084EE030AD4ED000A0E
:1055E00020EE200A82ED000A84EE030AD3ED000AC1
:1055F00020EE200A82ED010A10BDF0EE400A0B7881
:1056000002EB8303C3ED000A0B785B1C0B700B7875
:10561000834201DB00230B700B7802EB830393EDD5
:10562000000A704700B50246B0EE403A0B46F7EE6E
:10563000000A43EE430AB0EE600AFFF73BFDD2EDED
:10564000000A20EE200AD2ED010A00EEC30A83ED23
:10565000000AF7EE000A43EE430AB0EE600AFFF7D5
:1056600029FDD2ED010A20EE200AD2ED000A00EE5B
:10567000830A83ED010A00BD90ED000AD1ED010A15
:1056800020EE200AD0ED010A91ED001A00EEC10AC9
:10569000704790ED000AD1ED000A20EE200AD0ED0F
:1056A000010A91ED011A00EE810A704790ED010A9E
:1056B000D1ED020A20EE200AD0ED020A91ED011A86
:1056C00000EEC10A82ED000A90ED020AD1ED000A57
:1056D00020EE200AD0ED000A91ED021A00EEC10A78
:1056E00082ED010A90ED000AD1ED010A20EE200AB8
:1056F000D0ED010A91ED001A00EEC10A82ED020A16
:10570000704790ED000AD1ED000A20EE200AD0ED9E
:10571000010A91ED011A00EE810AD0ED020A91ED25
:10572000021A00EE810A70479A99993FCDCC4C3FFE
:10573000CDCC4C3ECDCCCC3DC3F5C84000000000E4
:1057400000806640000000000080764000000000FD
:10575000008066C02DE9F0412DED028B04460F4616
:1057600016461D460CB9002003E04FF47A7090FBFA
:10577000F4F000EE100AF8EEC08AB1EE040A88EEEA
:10578000808A88480560884806608848D0ED0C0A01
:1057900090ED0C1A9FED860A00EEC10AF1EE040AA4
:1057A00020EE200AB5EEC00AF1EE10FA02D89FED05
:1057B000810A23E07D48D0ED0C0A90ED0C1A9FED94
:1057C0007C0A00EEC10AF1EE040A20EE200AF7EE90
:1057D000000AB4EEE00AF1EE10FA02DDB7EE000ABC
:1057E0000CE07248D0ED0C0A90ED0C1A9FED700A97
:1057F00000EEC10AF1EE040A20EE200AF2EE040ADD
:1058000020EE200A6C4880ED000A6C480078401CAD
:105810006A49087008460078052190FBF1F201FB07
:105820001200664908700846007830BB5D48006881
:1058300063490968401A00EE100AB8EEC00A20EE6B
:10584000080ABDEEC00A5F4880ED000A00685E49A4
:105850000968401A00EE100AB8EEC00A20EE080AE5
:10586000BDEEC00A594880ED000A4E480068544910
:10587000086054480068544908609FED550A55482F
:1058800080ED020A484890ED000AB8EEC00A51487F
:1058900080ED000A4D4890ED000AB8EEC00A4D4870
:1058A00080ED010A9FED4C0A80ED030A00EE904A5C
:1058B000F8EE600A9FED491A60EE810AB0EE600AC8
:1058C000FEF76CF99FED460A464880ED020A414812
:1058D000D0ED060AB0EE600A374890ED001ADFED11
:1058E000350AFFF7FDFC3F4880ED000A354890ED92
:1058F000000AB8EEC00A3B4880ED010A9FED360A67
:1059000080ED030A00EE904AF8EE600A9FED331A2C
:1059100060EE810AB0EE600AFEF785F99FED300A6D
:10592000314880ED020A2F4890ED050A2E4880ED9F
:10593000000A00EE105AB8EEC00A80ED010A00EE2F
:10594000904AF8EE600A9FED251A60EE810AB0EEEB
:10595000600AFEF768F9BDEC028BBDE8F0819FEDAF
:10596000150A1C4880ED060A0F480068404200EE08
:10597000100AB8EEC00A174880ED050A9FED0D0A1F
:10598000184880ED050A9FED0B0A80ED040A9FED93
:10599000090A154880ED050A9FED060A80ED040A04
:1059A0007047000064020020740200200C010020F7
:1059B000DBF97E3F0000000070020020780200202A
:1059C0005C02002068020020600200206C020020BF
:1059D000CDCCCC3DB8100020000048436F12833A74
:1059E000CDCCCC3ED4100020EC100020B0EE403ADC
:1059F000B5EEC03AF1EE10FA02D19FED4B0A03E08A
:105A0000F7EE004A84EE830AB0EE404A91ED010AB7
:105A100031EE400A20EE040A81ED050A027842B90F
:105A200091ED020A31EEC00A20EE040A81ED030A6C
:105A300003E091ED040A81ED030A90ED030AD1ED34
:105A4000054A20EE240AD0ED044A91ED035AF0EE07
:105A5000403A44EEC53A90ED010AB5EEC00AF1EEC7
:105A600010FA0AD0D0ED014A83EEA40A71EE614A21
:105A700030EE240A81ED000A03E09FED2B0A81ED50
:105A8000000AD0ED024A91ED000AB1EE425AB4EE9E
:105A9000C50AF1EE10FA02D8B1EE420A0BE091ED20
:105AA000000AB4EEC20AF1EE10FA02DDB0EE420ACC
:105AB00001E091ED000A64EE804A91ED060A04EEE1
:105AC000830A81ED060A91ED060AF1EE624AB4EE10
:105AD000E40AF1EE10FA02D8B1EE620A0BE091EDA1
